:100000003AC054C053C052C007C450C04FC04EC0C5
:100010004DC04CC04BC04AC049C048C047C046C094
:1000200045C06537306177666666667865306661BB
:10003000653030733030773030343065306673304F
:100040003177303032307330306530307330317763
:100050003030323065306673303277303034307360
:100060003030653030733032773030343065306660
:1000700073303300000011241FBECFE5D2E0DEBF95
:10008000CDBF10E0A0E6B0E0ECEBFAE002C00590D6
:100090000D92A43BB107D9F712E0A4EBB0E001C088
:1000A0001D92AE33B107E1F70CD206C5A9CF40913E
:1000B000B40030E082E290E00DC0FC010196249192
:1000C000222329F41092B40082E290E005C0283780
:1000D000A1F73F5F341789F79093BA008093B90076
:1000E0001092BD001092BC000895982F80538A3062
:1000F00068F08153863010F4865F0895892F81540B
:10010000863010F080E00895892F87530895CF92AC
:10011000DF92EF92FF920F931F93CF93DF93C82E3E
:10012000C091B900D091BA007E01D82E20E030E015
:1001300010C0F7018491890194E0000F111F9A9576
:10014000E1F7D3DF9801280F311DDA940894E11C00
:10015000F11CDD2071F7CC0DD11DD093BA00C093F6
:10016000B900C901DF91CF911F910F91FF90EF90DE
:10017000DF90CF9008959091B8008091B8009817C3
:10018000E1F30895F89419BE1ABA17BA14BA11BA5D
:1001900016B81BBA18BA15BA84E082BB17B885B76F
:1001A0008C7F85BF1ABE80E48BBF789485B7806250
:1001B00085BF88950895CF93DF938091B6008330F3
:1001C000E1F38091B6008330E1F7EDEBF1E080815F
:1001D000882311F081508083319781E0ED3AF80750
:1001E000B1F74FEE242F30E0D901A254BF4F9C91BC
:1001F000992349F0F901E253FF4F8081891708F4F0
:10020000908391509C93415068F7CEEBD0E0B2D3ED
:100210008F7190704F9759F4ADD3ACD3ABD3AAD3B1
:10022000A9D3A8D3A7D3A6D3A5D38F7088832196AB
:1002300080E0CE3CD80759F790E02091B80080913B
:10024000B8002817E1F39F5F9730B9F761D2DF91CB
:10025000CF9108958F929F92AF92BF92CF92DF92EB
:10026000EF92FF920F931F93CF93DF935FEF852E53
:10027000912CA12C41E0B42E30E1C32ED12CBBC077
:10028000E091B900F091BA003196F093BA00E09392
:10029000B90031978491883711F0882311F407DF72
:1002A000F6C0803731F1813730F48136C1F08536C0
:1002B00009F0A0C006C0833749F0873709F09AC01B
:1002C00092C082E024DF8093BB0095C082E01FDFF4
:1002D000FC01E254FF4F8091BB0080838CC0809171
:1002E000BB00EEEBF0E0819321E0EE3BF207D9F7A3
:1002F00082C082E00CDFE82E2FE0F22EF822682F79
:1003000084FF22C030E08F2D90E08601081B190B7E
:10031000EC01C254DF4F832F8295807F20E0482F6D
:1003200050E00AC0E40FF51FDE01AE0FBF1F8C9135
:10033000E254FF4F80832F5FE22FF0E0E017F107D8
:100340008CF33F5F303139F7162F1295107F65FF20
:1003500015C0812F90E0DC01A254BF4F20E030E0B7
:10036000A501481B590B07C0F901E254FF4F8D91BD
:1003700080832F5F3F4F24173507B4F366FF1BC000
:1003800020E06F2D70E0822F8295807F9FE0482FC4
:1003900050E0FA01E90FF11DDF01A61BB70BA254D3
:1003A000BF4F8C91E254FF4F808391509F1588F787
:1003B0002F5F203141F7E7FE1EC0412F50E0D401EE
:1003C000A41BB50BA254BF4F2FEF30E008C0F901BA
:1003D000E254FF4F8C9180832150304011972417B5
:1003E0003507ACF708C084E092DE9093BD0080939F
:1003F000BC0001C05CDE8091BC009091BD00009704
:1004000009F43ECF2FEF8F3F920729F00197909389
:10041000BD008093BC008091B80090E08370907024
:10042000892BA9F540E050E060E2A42FB0E0FD0187
:10043000E254FF4FE081E4FF23C08E2F8F702E2FF8
:10044000207F25FF0DC0982F9F5F892F807FA1F00F
:1004500026FF02C0262702C02E2F207E9FE00CC060
:10046000982F9150892F807F39F026FF02C02627D0
:1004700002C02E2F207E90E0A254BF4F922B9C935F
:100480004F5F5F4F81E04030580779F641D1DF91EF
:10049000CF911F910F91FF90EF90DF90CF90BF9081
:1004A000AF909F908F90089557D082E290E0909304
:1004B000BA008093B9001092BD001092BC007894ED
:1004C0000895F2DF90E02091B8008091B8002817DD
:1004D000E1F39F5F9431B9F78091B7008823E1F78A
:1004E00090E02091B8008091B8002817E1F39F5F59
:1004F0009431B9F78091B700882331F12DD09091D4
:10050000B8008091B8009817E1F390E00AC02091FC
:10051000B8008091B8002817E1F3892F8F5F09F0A8
:10052000982F8091B700882391F7933308F02ADE43
:100530009091B8008091B8009817E1F38091B400D1
:100540008F5F8093B400B3DD85DE9091B800809119
:10055000B8009817E1F3CECF85B78F7D85BF85B7FB
:10056000806185BF84B78F7D84BF86B78F7786BF54
:100570001BBE26EC31E080E090E04FEF0DC04083E1
:1005800041833296E217F307D1F701969F01285F66
:100590003F4F8031910549F0FC0153E0EE0FFF1F02
:1005A0005A95E1F7E254FE4FEACFEEEBF0E01192FC
:1005B00081E0EE3BF807D9F79FEF9ABB2FE127BB0D
:1005C00094BB91BB87E086B98BBB28BB15BA92BBA5
:1005D00017B81FBC88E08EBD1DBC1CBC80E091E03C
:1005E0009BBD8ABD80E489BF88BF89E08EBD089528
:1005F000E82FF0E0EE0FFF1FE059FF4F308181E060
:1006000090E0018002C0880F991F0A94E2F7282F1A
:10061000E62FF0E0832F90E040FF0EC0B3E0EE0F36
:10062000FF1FBA95E1F7E80FF91FE254FE4F822F42
:100630008095908189230BC0A3E0EE0FFF1FAA9540
:10064000E1F7E80FF91FE254FE4F8081822B80838F
:10065000E62FF0E0832F90E041FF0EC073E0EE0F35
:10066000FF1F7A95E1F7E254FE4FE80FF91F822F42
:100670008095928189230BC053E0EE0FFF1F5A959E
:10068000E1F7E254FE4FE80FF91F8281822B82834B
:10069000E62FF0E0832F90E042FF0EC0B3E0EE0FB4
:1006A000FF1FBA95E1F7E254FE4FE80FF91F822FC2
:1006B0008095948189230BC0A3E0EE0FFF1FAA95BC
:1006C000E1F7E254FE4FE80FF91F8481822B848307
:1006D000E62FF0E0832F90E043FF0DC073E0EE0FB4
:1006E000FF1F7A95E1F7E254FE4FE80FF91F2095BE
:1006F000868128230BC063E0EE0FFF1F6A95E1F7A8
:10070000E254FE4FE80FF91F8681282B26830895B7
:100710008F929F92AF92BF92CF92DF92EF92FF9211
:100720000F931F93CF93DF93AEEBB1E0CC24DD2486
:1007300091E0A92EB12C50C0000F111FF70181913B
:100740007F01F401E80FF11D208130E0C9018A2505
:100750009B2581709070082B192BCC0FDD1FC901D0
:10076000969587958A259B2581709070C82BD92BEB
:10077000660F771F3695279536952795C9018A25E7
:100780009B2581709070682B792B440F551F3695EF
:1007900027952A253B2521703070422B532BF0E7FB
:1007A000EF16F0E0FF0641F611961C930E93139698
:1007B000DC93CE93129715967C936E9314971796AD
:1007C0005C934E931697189680E190E0C80ED91E60
:1007D00092E0AE33B90799F020E6E22E20E0F22E47
:1007E00000E010E0C0E0D0E060E070E040E050E009
:1007F0009EEB892E90E0992E8C0C9D1C9DCFDF9155
:10080000CF911F910F91FF90EF90DF90CF90BF900D
:10081000AF909F908F9008950F930FB70F931F93F2
:10082000EF93FF9311270091B50003950F7000938C
:10083000B500A1F40091B600039503700093B600D3
:1008400031F40091B80003950093B8000027089494
:10085000111F0A95EAF71BBD11271ABD07E00BBB54
:100860000FE108BB00E005BB0FEF02BB00E007B9DA
:1008700000B3009504700093B70059F5EEEBF1E07A
:100880000091B500000F000F000FE00FF11F009165
:10089000B600000FE00FF11F00810295069507706A
:1008A0000BBB01910F7108BB008102BBE0E9F0E0D6
:1008B0000091B500000FE00FF11F01911191E02FA1
:1008C000FF2700270894001F1A95EAF71081102BC4
:1008D0001083FF91EF911F910F910FBF0F9118950A
:1008E000A0E0B0E0E5E7F4E096C0EC01A880B980B4
:1008F000CA80DB80A114B104C104D10441F484E2B4
:10090000A82E89EDB82E8BE5C82E87E0D82EC6011B
:10091000B5012DE133EF41E050E05AD027EA31E450
:1009200040E050E036D07B018C01C601B5012DE1DD
:1009300033EF41E050E04CD0CA01B9012CEE34EF66
:100940004FEF5FEF26D06E0D7F1D801F911F97FF29
:1009500004C06150704080409048688379838A83E6
:100960009B839B013F77C901CDB7DEB7EAE06FC03B
:10097000B7DF089580EB90E0B3DF0895A0E0B0E02A
:100980008093B0009093B100A093B200B093B300F5
:100990000895629FD001739FF001829FE00DF11DC9
:1009A000649FE00DF11D929FF00D839FF00D749FE9
:1009B000F00D659FF00D9927729FB00DE11DF91F95
:1009C000639FB00DE11DF91FBD01CF0111240895F2
:1009D00097FB092E05260ED057FD04D04BD00AD028
:1009E000001C38F450954095309521953F4F4F4F5E
:1009F0005F4F0895F6F790958095709561957F4FBC
:100A00008F4F9F4F08952F923F924F925F926F9218
:100A10007F928F929F92AF92BF92CF92DF92EF928E
:100A2000FF920F931F93CF93DF93CDB7DEB7CA1B0F
:100A3000DB0B0FB6F894DEBF0FBECDBF09942A883A
:100A4000398848885F846E847D848C849B84AA84E2
:100A5000B984C884DF80EE80FD800C811B81AA816F
:100A6000B981CE0FD11D0FB6F894DEBF0FBECDBF3A
:100A7000ED010895A1E21A2EAA1BBB1BFD010DC0BA
:100A8000AA1FBB1FEE1FFF1FA217B307E407F5073E
:100A900020F0A21BB30BE40BF50B661F771F881F1A
:100AA000991F1A9469F760957095809590959B01B0
:0C0AB000AC01BD01CF010895F894FFCF08
:100ABC0001030507090B0D0F0002040E0C0A0806B2
:100ACC0000070107000601060005010500000104EE
:100ADC0000010103000201020003010100040100F6
:100AEC003B033B043B053B063B0727002701270242
:100AFC003507350635053504350335023501350026
:040B0C0001000000E4
:00000001FF
